:100000000C9434000C94E9000C94E9000C94E90081
:100010000C94E9000C94E9000C94E9000C94E900BC
:100020000C94E9000C94E9000C94E9000C94E900AC
:100030000C94E9000C94E9000C94E9000C94E9009C
:100040000C94E9000C94E9000C94E9000C94E9008C
:100050000C94E9000C94E9000C94E9000C94E9007C
:100060000C94E9000C94E90011241FBECFEFD8E0F6
:10007000DEBFCDBF0E9440000C94DE00F894FFCF9D
:100080002098289A8AB1886F8AB98BB187708BB90A
:1000900020E030E080E090E0F5E0E0E004E010E017
:1000A000D0E0C0E071E060E06894FF24F1F8E12C5A
:1000B00053E040E008C08F2D9E2D05C0802F912F6A
:1000C00002C08D2F9C2F8230910509F443C034F477
:1000D000009779F081309105B9F0F5CF8430910522
:1000E00009F458C00CF441C08530910509F459C099
:1000F000EACF8BB1877E8BB95D9A5E9A5F9828E9CB
:100100003AE3872F962FDFCF2838A3E13A0719F477
:100110005E985F9A12C0203ABFE03B0721F0203D75
:10012000A7E03A0709F45F98283BBBE03B0721F0C2
:10013000283EA3E03A0709F45F9A121613060CF062
:10014000BACF21503109AFE9BFE01197F1F700C0F4
:100150000000B9CF8BB18F7C8BB95B9A5E985F9AA8
:1001600020E134EA852F942FAECF189906C02131B3
:10017000B7E23B0714F020E137E2121613060CF049
:100180009DCF21503109AFE9BFE01197F1F700C0D1
:10019000000099CF5B985C9A28EB3BE08F2F9E2F55
:1001A00092CF121613060CF08CCF21503109AFE913
:0C01B000BFE01197F1F700C0000085CF00
:1001BC00EC010E94EE000E94ED00CE010E94EF00C7
:0601CC00CE010E94EB00D1
:0401D2000C94000089
:0401D6000E943E0045
:0201DA00089586
:0201DC00089584
:0201DE00089582
:00000001FF
